{
  "_format": "hh-sol-artifact-1",
  "contractName": "CoinFlip",
  "sourceName": "contracts/CoinFlip.sol",
  "abi": [
    {
      "inputs": [],
      "stateMutability": "nonpayable",
      "type": "constructor"
    },
    {
      "anonymous": false,
      "inputs": [
        {
          "indexed": false,
          "internalType": "uint256",
          "name": "requestId",
          "type": "uint256"
        }
      ],
      "name": "CoinFlipRequest",
      "type": "event"
    },
    {
      "anonymous": false,
      "inputs": [
        {
          "indexed": false,
          "internalType": "uint256",
          "name": "requestId",
          "type": "uint256"
        },
        {
          "indexed": false,
          "internalType": "bool",
          "name": "didWin",
          "type": "bool"
        }
      ],
      "name": "CoinFlipResult",
      "type": "event"
    },
    {
      "inputs": [
        {
          "internalType": "enum CoinFlip.CoinFlipSelection",
          "name": "choice",
          "type": "uint8"
        }
      ],
      "name": "flip",
      "outputs": [
        {
          "internalType": "uint256",
          "name": "",
          "type": "uint256"
        }
      ],
      "stateMutability": "payable",
      "type": "function"
    },
    {
      "inputs": [
        {
          "internalType": "uint256",
          "name": "requestId",
          "type": "uint256"
        }
      ],
      "name": "getStatus",
      "outputs": [
        {
          "components": [
            {
              "internalType": "uint256",
              "name": "fees",
              "type": "uint256"
            },
            {
              "internalType": "uint256",
              "name": "randomWord",
              "type": "uint256"
            },
            {
              "internalType": "address",
              "name": "player",
              "type": "address"
            },
            {
              "internalType": "bool",
              "name": "didWin",
              "type": "bool"
            },
            {
              "internalType": "bool",
              "name": "fulfilled",
              "type": "bool"
            },
            {
              "internalType": "enum CoinFlip.CoinFlipSelection",
              "name": "choice",
              "type": "uint8"
            }
          ],
          "internalType": "struct CoinFlip.CoinFlipStatus",
          "name": "",
          "type": "tuple"
        }
      ],
      "stateMutability": "view",
      "type": "function"
    },
    {
      "inputs": [
        {
          "internalType": "uint256",
          "name": "_requestId",
          "type": "uint256"
        },
        {
          "internalType": "uint256[]",
          "name": "_randomWords",
          "type": "uint256[]"
        }
      ],
      "name": "rawFulfillRandomWords",
      "outputs": [],
      "stateMutability": "nonpayable",
      "type": "function"
    },
    {
      "inputs": [
        {
          "internalType": "uint256",
          "name": "",
          "type": "uint256"
        }
      ],
      "name": "statuses",
      "outputs": [
        {
          "internalType": "uint256",
          "name": "fees",
          "type": "uint256"
        },
        {
          "internalType": "uint256",
          "name": "randomWord",
          "type": "uint256"
        },
        {
          "internalType": "address",
          "name": "player",
          "type": "address"
        },
        {
          "internalType": "bool",
          "name": "didWin",
          "type": "bool"
        },
        {
          "internalType": "bool",
          "name": "fulfilled",
          "type": "bool"
        },
        {
          "internalType": "enum CoinFlip.CoinFlipSelection",
          "name": "choice",
          "type": "uint8"
        }
      ],
      "stateMutability": "view",
      "type": "function"
    }
  ],
  "bytecode": "0x60c060405234801561001057600080fd5b5073779877a7b0d9e8603169ddbd7836e478b462478973ab18414cd93297b0d12ac29e63ca20f515b3db468173ffffffffffffffffffffffffffffffffffffffff1660808173ffffffffffffffffffffffffffffffffffffffff16815250508073ffffffffffffffffffffffffffffffffffffffff1660a08173ffffffffffffffffffffffffffffffffffffffff1681525050505060805160a0516114106100e66000396000818161011e0152818161033d015281816108780152818161089901526109b90152600061083c01526114106000f3fe60806040526004361061003f5760003560e01c80631fe543e3146100445780635c622a0e1461006d578063638c0637146100aa578063e67b932c146100da575b600080fd5b34801561005057600080fd5b5061006b60048036038101906100669190610c54565b61011c565b005b34801561007957600080fd5b50610094600480360381019061008f9190610cb0565b6101b8565b6040516100a19190610e3a565b60405180910390f35b6100c460048036038101906100bf9190610e7a565b6102bf565b6040516100d19190610eb6565b60405180910390f35b3480156100e657600080fd5b5061010160048036038101906100fc9190610cb0565b610548565b60405161011396959493929190610efe565b60405180910390f35b7f000000000000000000000000000000000000000000000000000000000000000073ffffffffffffffffffffffffffffffffffffffff163373ffffffffffffffffffffffffffffffffffffffff16146101aa576040517f08c379a00000000000000000000000000000000000000000000000000000000081526004016101a190610fbc565b60405180910390fd5b6101b482826105cb565b5050565b6101c0610a4f565b6000808381526020019081526020016000206040518060c001604052908160008201548152602001600182015481526020016002820160009054906101000a900473ffffffffffffffffffffffffffffffffffffffff1673ffffffffffffffffffffffffffffffffffffffff1673ffffffffffffffffffffffffffffffffffffffff1681526020016002820160149054906101000a900460ff161515151581526020016002820160159054906101000a900460ff161515151581526020016002820160169054906101000a900460ff1660018111156102a2576102a1610d48565b5b60018111156102b4576102b3610d48565b5b815250509050919050565b600066038d7ea4c680006fffffffffffffffffffffffffffffffff16341461031c576040517f08c379a000000000000000000000000000000000000000000000000000000000815260040161031390611028565b60405180910390fd5b600061032e620f424060036001610838565b90506040518060c001604052807f000000000000000000000000000000000000000000000000000000000000000073ffffffffffffffffffffffffffffffffffffffff16634306d354620f42406040518263ffffffff1660e01b81526004016103979190611067565b602060405180830381865afa1580156103b4573d6000803e3d6000fd5b505050506040513d601f19601f820116820180604052508101906103d89190611097565b8152602001600081526020013373ffffffffffffffffffffffffffffffffffffffff16815260200160001515815260200160001515815260200184600181111561042557610424610d48565b5b815250600080838152602001908152602001600020600082015181600001556020820151816001015560408201518160020160006101000a81548173ffffffffffffffffffffffffffffffffffffffff021916908373ffffffffffffffffffffffffffffffffffffffff16021790555060608201518160020160146101000a81548160ff02191690831515021790555060808201518160020160156101000a81548160ff02191690831515021790555060a08201518160020160166101000a81548160ff02191690836001811115610500576104ff610d48565b5b02179055509050507fc717121f790f1962df8bdfbee9885b81f91725243973dc7cd7c7976f29d4591b816040516105379190610eb6565b60405180910390a180915050919050565b60006020528060005260406000206000915090508060000154908060010154908060020160009054906101000a900473ffffffffffffffffffffffffffffffffffffffff16908060020160149054906101000a900460ff16908060020160159054906101000a900460ff16908060020160169054906101000a900460ff16905086565b60008060008481526020019081526020016000206000015411610623576040517f08c379a000000000000000000000000000000000000000000000000000000000815260040161061a90611110565b60405180910390fd5b600160008084815260200190815260200160002060020160156101000a81548160ff0219169083151502179055508060008151811061066557610664611130565b5b60200260200101516000808481526020019081526020016000206001018190555060008060028360008151811061069f5761069e611130565b5b60200260200101516106b1919061118e565b036106bb57600190505b8060018111156106ce576106cd610d48565b5b60008085815260200190815260200160002060020160169054906101000a900460ff16600181111561070357610702610d48565b5b036107d857600160008085815260200190815260200160002060020160146101000a81548160ff02191690831515021790555060008084815260200190815260200160002060020160009054906101000a900473ffffffffffffffffffffffffffffffffffffffff1673ffffffffffffffffffffffffffffffffffffffff166108fc600266038d7ea4c68000610799919061120a565b6fffffffffffffffffffffffffffffffff169081150290604051600060405180830381858888f193505050501580156107d6573d6000803e3d6000fd5b505b7ffc4ec7c57358245b234720f395988d6a69c2d9317f88f5ec658dc829e2385b198360008086815260200190815260200160002060020160149054906101000a900460ff1660405161082b929190611247565b60405180910390a1505050565b60007f000000000000000000000000000000000000000000000000000000000000000073ffffffffffffffffffffffffffffffffffffffff16634000aea07f00000000000000000000000000000000000000000000000000000000000000007f000000000000000000000000000000000000000000000000000000000000000073ffffffffffffffffffffffffffffffffffffffff16634306d354886040518263ffffffff1660e01b81526004016108f09190611067565b602060405180830381865afa15801561090d573d6000803e3d6000fd5b505050506040513d601f19601f820116820180604052508101906109319190611097565b8787876040516020016109469392919061128d565b6040516020818303038152906040526040518463ffffffff1660e01b815260040161097393929190611343565b6020604051808303816000875af1158015610992573d6000803e3d6000fd5b505050506040513d601f19601f820116820180604052508101906109b691906113ad565b507f000000000000000000000000000000000000000000000000000000000000000073ffffffffffffffffffffffffffffffffffffffff1663fc2a88c36040518163ffffffff1660e01b8152600401602060405180830381865afa158015610a22573d6000803e3d6000fd5b505050506040513d601f19601f82011682018060405250810190610a469190611097565b90509392505050565b6040518060c001604052806000815260200160008152602001600073ffffffffffffffffffffffffffffffffffffffff16815260200160001515815260200160001515815260200160006001811115610aab57610aaa610d48565b5b81525090565b6000604051905090565b600080fd5b600080fd5b6000819050919050565b610ad881610ac5565b8114610ae357600080fd5b50565b600081359050610af581610acf565b92915050565b600080fd5b6000601f19601f8301169050919050565b7f4e487b7100000000000000000000000000000000000000000000000000000000600052604160045260246000fd5b610b4982610b00565b810181811067ffffffffffffffff82111715610b6857610b67610b11565b5b80604052505050565b6000610b7b610ab1565b9050610b878282610b40565b919050565b600067ffffffffffffffff821115610ba757610ba6610b11565b5b602082029050602081019050919050565b600080fd5b6000610bd0610bcb84610b8c565b610b71565b90508083825260208201905060208402830185811115610bf357610bf2610bb8565b5b835b81811015610c1c5780610c088882610ae6565b845260208401935050602081019050610bf5565b5050509392505050565b600082601f830112610c3b57610c3a610afb565b5b8135610c4b848260208601610bbd565b91505092915050565b60008060408385031215610c6b57610c6a610abb565b5b6000610c7985828601610ae6565b925050602083013567ffffffffffffffff811115610c9a57610c99610ac0565b5b610ca685828601610c26565b9150509250929050565b600060208284031215610cc657610cc5610abb565b5b6000610cd484828501610ae6565b91505092915050565b610ce681610ac5565b82525050565b600073ffffffffffffffffffffffffffffffffffffffff82169050919050565b6000610d1782610cec565b9050919050565b610d2781610d0c565b82525050565b60008115159050919050565b610d4281610d2d565b82525050565b7f4e487b7100000000000000000000000000000000000000000000000000000000600052602160045260246000fd5b60028110610d8857610d87610d48565b5b50565b6000819050610d9982610d77565b919050565b6000610da982610d8b565b9050919050565b610db981610d9e565b82525050565b60c082016000820151610dd56000850182610cdd565b506020820151610de86020850182610cdd565b506040820151610dfb6040850182610d1e565b506060820151610e0e6060850182610d39565b506080820151610e216080850182610d39565b5060a0820151610e3460a0850182610db0565b50505050565b600060c082019050610e4f6000830184610dbf565b92915050565b60028110610e6257600080fd5b50565b600081359050610e7481610e55565b92915050565b600060208284031215610e9057610e8f610abb565b5b6000610e9e84828501610e65565b91505092915050565b610eb081610ac5565b82525050565b6000602082019050610ecb6000830184610ea7565b92915050565b610eda81610d0c565b82525050565b610ee981610d2d565b82525050565b610ef881610d9e565b82525050565b600060c082019050610f136000830189610ea7565b610f206020830188610ea7565b610f2d6040830187610ed1565b610f3a6060830186610ee0565b610f476080830185610ee0565b610f5460a0830184610eef565b979650505050505050565b600082825260208201905092915050565b7f6f6e6c792056524620563220777261707065722063616e2066756c66696c6c00600082015250565b6000610fa6601f83610f5f565b9150610fb182610f70565b602082019050919050565b60006020820190508181036000830152610fd581610f99565b9050919050565b7f456e7472792066656573206e6f74206d65740000000000000000000000000000600082015250565b6000611012601283610f5f565b915061101d82610fdc565b602082019050919050565b6000602082019050818103600083015261104181611005565b9050919050565b600063ffffffff82169050919050565b61106181611048565b82525050565b600060208201905061107c6000830184611058565b92915050565b60008151905061109181610acf565b92915050565b6000602082840312156110ad576110ac610abb565b5b60006110bb84828501611082565b91505092915050565b7f52657175657374206e6f7420666f756e64000000000000000000000000000000600082015250565b60006110fa601183610f5f565b9150611105826110c4565b602082019050919050565b60006020820190508181036000830152611129816110ed565b9050919050565b7f4e487b7100000000000000000000000000000000000000000000000000000000600052603260045260246000fd5b7f4e487b7100000000000000000000000000000000000000000000000000000000600052601260045260246000fd5b600061119982610ac5565b91506111a483610ac5565b9250826111b4576111b361115f565b5b828206905092915050565b60006fffffffffffffffffffffffffffffffff82169050919050565b7f4e487b7100000000000000000000000000000000000000000000000000000000600052601160045260246000fd5b6000611215826111bf565b9150611220836111bf565b925082820261122e816111bf565b91508082146112405761123f6111db565b5b5092915050565b600060408201905061125c6000830185610ea7565b6112696020830184610ee0565b9392505050565b600061ffff82169050919050565b61128781611270565b82525050565b60006060820190506112a26000830186611058565b6112af602083018561127e565b6112bc6040830184611058565b949350505050565b600081519050919050565b600082825260208201905092915050565b60005b838110156112fe5780820151818401526020810190506112e3565b60008484015250505050565b6000611315826112c4565b61131f81856112cf565b935061132f8185602086016112e0565b61133881610b00565b840191505092915050565b60006060820190506113586000830186610ed1565b6113656020830185610ea7565b8181036040830152611377818461130a565b9050949350505050565b61138a81610d2d565b811461139557600080fd5b50565b6000815190506113a781611381565b92915050565b6000602082840312156113c3576113c2610abb565b5b60006113d184828501611398565b9150509291505056fea2646970667358221220f6116a89ed89482f77781e7f66bb4603675c2d3a9cb9ba2f703da2abd721489564736f6c63430008120033",
  "linkReferences": {},
  "deployedLinkReferences": {}
}